:020000040800F2
:1000000090060020CD030008C9010008CB010008BC
:1000100000000000000000000000000000000000E0
:10002000000000000000000000000000CF010008F8
:100030000000000000000000D1010008D30100080A
:10004000DF030008DF030008DF030008DF03000808
:10005000DF030008DF030008DF030008DF030008F8
:10006000DF030008DF030008DF030008DF030008E8
:10007000DF030008DF030008DF030008DF030008D8
:10008000DF190008DF03000800000000DF0300089C
:10009000DF030008DF030008DF030008DF030008B8
:1000A000DF030008DF030008DF030008DF030008A8
:1000B000DF03000800000000DF030008000000006C
:1000C00000F002F800F040F80CA030C808382418FE
:1000D0002D18A246671EAB4654465D46AC4201D180
:1000E00000F032F87E460F3E0FCCB6460126334272
:1000F00000D0FB1AA246AB4633431847A41B0000AE
:10010000C41B0000103A02D378C878C1FAD852074D
:1001100001D330C830C101D504680C6070470000BD
:100120000023002400250026103A01D378C1FBD813
:10013000520700D330C100D50B6070471FB5C046D1
:10014000C0461FBD10B510BD01F078FD1146FFF788
:10015000F5FF00F009F801F090FD03B4FFF7F2FF9E
:1001600003BC01F095FD000000BF01F087FB01F02A
:1001700059FC26E07D20C00001F09CFBC320114902
:1001800048637D20C00001F095FBBE200D49486307
:100190007D20C00001F08EFBB9200A4948637D2014
:1001A000C00001F087FBB420064948637D20C000F1
:1001B00001F080FBAF20034948637D20C00001F0BF
:1001C00079FBD7E700200040704700BFFEE770478B
:1001D000704770470CB5002001900090734800688C
:1001E0000121090408437149086000BF6F48006895
:1001F00001214904084000900198401C019000989A
:10020000002804D10521090301988842EED16748EE
:100210000068012149040840002802D00120009014
:1002200001E0002000900098012839D11120604998
:1002300008605E4840685D4948600846406848601C
:10024000084640683F2109048843584948600846E9
:100250004068112109040843544948600846006871
:100260000121090608435149086000BF4F48006852
:100270000121490608400028F8D04C484068800811
:1002800080004A49486008464068022108434749BF
:10029000486000BF454840680C2108400828F9D153
:1002A0000CBD10B541480068012108433F49086072
:1002B000084640683F4908403C4948600846006895
:1002C0003D49084039490860084600680121890411
:1002D000884336490860084640683F21090488433E
:1002E000324948600846C06A00090001C8620846F1
:1002F000006BFF21543188432C4908630846406B4A
:1003000040084000486300208860FFF763FF10BD8D
:10031000F8B50025002400260027244840680C2159
:1003200008400546002D04D0042D06D0082D2AD102
:1003300007E022482249086029E020482049086057
:1003400025E01A4840680F218904084004461748F0
:1003500040680121090408400646A00C841C002EB8
:1003600004D118486043164908600BE00F48C06A82
:100370000007000F471C3946104801F0AFFB6043EF
:100380000F49086003E00D480D49086000BF00BF39
:1003900006484068F021084000090B490D5C0848F8
:1003A0000068E84006490860F8BD000000100240FF
:1003B000002002400CB8FFF8FFFFF6FE00127A00A2
:1003C0000000002000093D0004000020074880478D
:1003D00007480047FEE7FEE7FEE7FEE7FEE7FEE729
:1003E00004480549054A064B70470000A30200086F
:1003F000C10000089000002090060020900200201C
:100400009002002010B504460920C006844209D19C
:100410000121480400F0EFFB00210120400400F01E
:10042000EAFB30E06E48844208D10121000200F06E
:10043000E2FB0021200200F0DEFB24E06948844258
:1004400008D10121000200F0D6FB0021200200F0BB
:10045000D2FB18E06448844209D10121080500F06C
:10046000CAFB00210120000500F0C5FB0BE05F483E
:10047000844208D10121880500F0BDFB0021012044
:10048000800500F0B8FB10BDF0B50A46002100233E
:10049000002400BF3DE001258D402B4615681D401E
:1004A0002C469C4234D11579012D02D01579022DAC
:1004B00016D185684F000326BE40B5438560557947
:1004C0004E00B540866835438560858801268E409C
:1004D000B5438580858896798E40B6B23543858050
:1004E00005684F000326BE40B543056015794E00F0
:1004F000B540066835430560C5684F000326BE4019
:10050000B543C560D5794E00B540C6683543C56072
:10051000491C1029BFD3F0BD35490160002101718C
:100520000121417100218171C171704708B501221B
:1005300012040092009A0A430092009AC261C161BB
:10054000009AC261C2690092C269009208BD024667
:100550000020138A0B40002B01D0012000E0002076
:1005600070470146088A704702460020938A0B4074
:10057000002B01D0012000E0002070470146888A4E
:1005800070478161704701857047002A01D0816101
:1005900000E00185704781827047F0B50023002498
:1005A0004D07EE0E1546B5402B46CD10AE00054664
:1005B0002035AD594E07F70E0F26BE40B543CE107D
:1005C000B60007462037BD51CD10AE003D46AD59AF
:1005D0001D432C46CD10AD003E467451F0BD0000C9
:1005E0000004004800080048000C004800140048BF
:1005F000FFFF000000218278002A27D0274A03232A
:100600001B02D21803789B109B00D15802789207E6
:10061000D30EFF229A400B46934319464278920725
:10062000120E03789B07DB0E9A4011431B4A0323EB
:100630001B02D21803789B109B00D1500278D3067E
:10064000DB0E01229A40154B1A6007E00278D306B0
:10065000DB0E01229A40114B80331A60704700294B
:1006600005D00F4A126902430D4B1A6104E00C4A8F
:10067000126982430A4B1A617047042806D109495E
:10068000096904221143074A116105E00549096916
:1006900004229143034A11617047000000E100E029
:1006A00000ED00E000E000E0FD48006801210843A3
:1006B000FB49086008464068FA490840F849486024
:1006C00008460068F8490840F5490860084600688F
:1006D000012189048843F2490860084640683F21A7
:1006E00009048843EE4948600846C06A00090001D1
:1006F000C8620846006BFF2154318843E84908630B
:100700000846406B400840004863002088607047FE
:100710000021E34A917011468870704710B5024677
:100720000021002300205111002902D1DC4C236854
:100730000BE0012902D1DA4C236A06E0022902D13A
:10074000D74C636A01E0D64C636BD106C90E012415
:100750008C401C40002C01D0012000E0002010BD86
:1007600038B5002000900024002500BF1120FFF7BD
:10077000D5FF05460098401C00900521090300980C
:10078000884201D0002DF1D01120FFF7C7FF0028CB
:1007900001D0012400E00024204638BD014600209D
:1007A000BF4A1068F82302469A431046CA00104315
:1007B000BB4A10607047002806D0B9490968012279
:1007C0001143B74A116005E0B54909684908490075
:1007D000B34A1160704701460020B14A506BF823BC
:1007E00002469A431046CA001043AD4A5063704710
:1007F000002806D0AA49496B01221143A84A516337
:1008000005E0A749496B49084900A54A516370476B
:10081000002806D0A249496B04229143A04A5163A3
:1008200005E09F49496B042211439D4A516370477B
:100830009B49096A49084900994A11621146096AA7
:1008400004229143964A11621146096A01431162DA
:1008500070479349096A18229143914A11621146DF
:10086000096A014311627047002806D08C49496A21
:10087000012211438A4A516205E08949496A4908BF
:100880004900874A51627047854A52683D231B04DC
:100890009A43834B5A601A46526803460B431A43E5
:1008A0007F4B5A607047002807D07D4909680122B4
:1008B000120611437A4A116006E07949096801225B
:1008C00012069143764A1160704701460020744A2F
:1008D000D06A0009000102460A431046704AD062FD
:1008E0007047002807D06E4909680122D2041143DD
:1008F0006B4A116006E06A4909680122D2049143FB
:10090000674A116070476649C87170470146002008
:10091000634A50688008800002460A431046604AD5
:10092000506070475E4840680C210840704701469F
:1009300000205B4A5068F02302469A431046024664
:100940000A431046564A5060704701460020544AF8
:10095000506807231B0202469A43104602460A4388
:1009600010464F4A506070474D4949680122920332
:1009700091434B4A51601146496882B21143484A3B
:1009800051601146096B92159143454A1163114616
:10099000096B020C1143424A116370474049096BCD
:1009A000402291433E4A11631146096B0143116392
:1009B00070473B49096B10229143394A1163114634
:1009C000096B0143116370473549096B8908890038
:1009D000334A11631146096B014311637047FEB539
:1009E00004460025002600200190009000272C4896
:1009F00040680C2108400546002D04D0042D05D088
:100A0000082D28D105E02948206027E027482060EC
:100A100024E0234840680F21890408400646204806
:100A200040680121090408400190B00C861C01981F
:100A3000002803D11E48704320600BE01848C06AAC
:100A40000007000F401C00901848009901F046F87C
:100A50007043206002E01548206000BF00BF1048CE
:100A60004068F021084005462D091248475D20687E
:100A7000F84060600A4840680721090208400546BE
:100A80002D0A0C48475D6068F840A0600448006B80
:100A9000FF2101310840884210D00748E0601BE088
:100AA000001002400CB8FFF8FFFFF6FE00127A00BB
:100AB00000093D0014000020809FD5007548406863
:100AC000012189030840884203D0A0684008E06003
:100AD00002E0A0688008E0606E48006B402108409A
:100AE000402802D06C48206102E00120C003206150
:100AF0006848006B10210840102802D067486061E8
:100B000001E0206860616348006B8007800F002867
:100B100002D1A068A06119E05E48006B8007800FD9
:100B2000012802D12068A06110E05A48006B8007BC
:100B3000800F022802D18003A06107E05548006BB6
:100B40008007800F032801D15448A061FEBD5149A0
:100B5000096A01434F4A11627047002807D04D4986
:100B6000096A0122D20311434A4A116206E0494947
:100B7000096A0122D2039143464A11627047002854
:100B800007D04449096A012212041143414A116203
:100B900006E04049096A0122120491433D4A11626C
:100BA0007047002905D03B4A52690243394B5A61CC
:100BB00004E0384A52698243364B5A617047002933
:100BC00005D0344A92690243324B9A6104E0314ABB
:100BD000926982432F4B9A617047002905D02D4AB4
:100BE000D26902432B4BDA6104E02A4AD26982437C
:100BF000284BDA617047002905D0264A926A0243E1
:100C0000244B9A6204E0234A926A8243214B9A62FF
:100C10007047002905D01F4AD26802431D4BDA6095
:100C200004E01C4AD26882431A4BDA6070470029FC
:100C300005D0184A12690243164B1A6104E0154A9E
:100C400012698243134B1A617047002905D0114A7B
:100C5000527A02430F4B5A7204E00E4A527A824390
:100C60000C4B5A7270470B48406A01210906084331
:100C700008494862704701460020064A92680A40C7
:100C8000002A01D0012000E000207047014988724D
:100C900070470000001002401280000000127A002D
:100CA00010B50446FE48844208D10121C014FFF764
:100CB000B0FF0021E014FFF7ACFF56E001208007F1
:100CC000844208D101210846FFF7B1FF002101202D
:100CD000FFF7ADFF49E0F348844208D1012102202B
:100CE000FFF7A5FF00210220FFF7A1FF3DE0EE483E
:100CF000844208D101211020FFF799FF0021102024
:100D0000FFF795FF31E0E948844208D101218015C1
:100D1000FFF78DFF0021A015FFF789FF25E0E448CC
:100D2000844209D101210804FFF773FF002101204B
:100D30000004FFF76EFF18E0DE48844209D101216C
:100D40004804FFF766FF002101204004FFF761FF20
:100D50000BE0D948844208D101218804FFF759FFEC
:100D6000002101208004FFF754FF10BD00220288FB
:100D7000CB4B984206D001239B07984202D0C94B27
:100D8000984203D1CD4B1A404B881A43C64B984228
:100D900003D0CB4B1A400B891A4302804B68C362C5
:100DA0000B880385BE4B984208D0C14B984205D0B2
:100DB000C04B984202D0C04B984201D18B7A038637
:100DC0000123838270470021C943416000210180D3
:100DD00001814180817270470185828270470A4695
:100DE00000210188B54B19400B4613431946018079
:100DF000704741627047C16270470146486A704758
:100E00000146088D7047002904D0028802231A4346
:100E1000028004E00288A94B6E331A4002807047BA
:100E2000002904D0028804231A43028004E00288C7
:100E3000A24B6C331A4002807047002904D002880C
:100E400080231A43028004E002889C4B103B1A4026
:100E5000028070470288994B68331A4002800288EA
:100E60000A43028070470288954B1A40028002882C
:100E70000A4302807047002904D0028801231A43E4
:100E8000028004E002888D4B6F331A400280704765
:100E90000A884B881A438B881A43CB881A430B89DC
:100EA0001A434B891A438B891A4344231A527047B9
:100EB0000021018041808180C18001814181818147
:100EC0007047002907D04422125A0123DB031A433A
:100ED00044231A5205E04422125A53045B0C442264
:100EE0001352704770B5002400220023058C734E06
:100EF0006F3635400584028C8388048B6F4D2C40FF
:100F0000B51E2C400D882C43751E2A408D892A431E
:100F10004D882A43624DA84208D0654DA84205D0AD
:100F2000644DA84202D0644DA84212D1634D683589
:100F30002A40CD892A43614D6C352A408D882A4349
:100F40005E4D903D2B405F4D2B400D8A2B434D8ACB
:100F50002B43838004838D684563028470BD70B524
:100F6000002400220023058C544E60363540058451
:100F7000028C8388048B544D2C40514D2C400D78AD
:100F80002D062D0C2C434D4D50352A408D892D05B5
:100F90002D0C2A434D882D052D0C2A43404DA84287
:100FA00002D0434DA8421CD1484D2B400D8AAD04C0
:100FB0002D0C2B433A4DA84213D1404D103D2A40F1
:100FC000CD892D052D0C2A433C4D30352A408D8886
:100FD0002D052D0C2A433E4D2B404D8AAD042D0C82
:100FE0002B43838004838D688563028470BD70B554
:100FF000002400220023058C304E903E35400584AD
:10100000028C8388848B2D4D2C402C4D6D352C40CB
:101010000D882C432B4D2A400D7B2D062D0C2A4389
:101020008D782D062D0C2A431D4DA84217D1284D31
:101030002A408D7B2D062D0C2A43244D2A400D7904
:101040002D062D0C2A43234D2B40234D2B400D8A7A
:101050002D052D0C2B434D8A2D052D0C2B43838004
:1010600084838D68C563028470BD70B5002200233F
:101070000024058C174E35400584038C8488828BB0
:10108000114D2A400E4D2A400D782D062D0C2A4375
:10109000114D2B400D7B2D072D0C2B438D781DE022
:1010A000002C0140000400400010004000200040DF
:1010B0000040014000440140004801408FFF000013
:1010C000FFFC0000FFFD0000FF8F0000FFFB0000A1
:1010D000FFF70000FFEF0000FFDF00002D072D0CE1
:1010E0002B43FE4DA84205D1FD4D2C400D8AAD0588
:1010F0002D0C2C43848082838D680564038470BD2D
:10110000002101804180818081608181C1810182D3
:101110004182704770B503460020002418461830FD
:1011200001258D40ACB21D8CA5431D84002901D042
:10113000082909D14D10281805687026B5430560A7
:101140000568154305600DE00D1F2D046D0C281872
:10115000056807263603B543056005681606360C94
:101160003543056070BD4163704781637047C1635B
:101170007047016470470A460021018BD94B194022
:101180000B4613431946018370470A460021018B21
:10119000D54B194013061B0C1943018370470A46AF
:1011A0000021818BCF4B19400B4613431946818395
:1011B00070470A460021818BCB4B194013061B0C4C
:1011C000194381837047002904D0828801231A4380
:1011D000828004E08288C34B6F331A40828070475C
:1011E0000A460021018BBF4B683319400B4613435D
:1011F0001946018370470A460021018BBB4B1940F9
:1012000013061B0C1943018370470A460021818B8A
:10121000B44B683319400B4613431946818370471A
:101220000A460021818BB14B194013061B0C194350
:10123000818370470A460021018BAA4B6C33194009
:101240000B4613431946018370470A460021018B60
:10125000A74B194013061B0C1943018370470A461C
:101260000021818B9F4B6C3319400B461343194669
:10127000818370470A460021818B9D4B19401306DC
:101280001B0C1943818370470A460021018B954B43
:10129000103B19400B4613431946018370470A4619
:1012A0000021018B4904490C13061B0C19430183CF
:1012B00070470A460021818B8A4B103B19400B4630
:1012C00013431946818370470A460021818B4904E4
:1012D000490C13061B0C1943818370470A460021F1
:1012E000018C804B6E3319400B4613431946018421
:1012F00070470A460021018C7A4B683319400B462F
:1013000013431946018470470A460021018C754B2E
:101310005033194013051B0C1943018470470A46CA
:101320000021018C6F4B103B194013051B0C194316
:10133000018470470A460021018C6E4B1940130648
:101340001B0C1943018470470A460021018C674B2E
:10135000194013061B0C1943018470470A460021EB
:10136000018C654B194013071B0C1943018470470E
:1013700002895C4B68331A40028102890A43028168
:10138000704730B5002301248C40A3B2048C9C43E9
:101390000484048C15468D40ADB22C43048430BDCA
:1013A00030B5002304248C40A3B2048C9C430484F5
:1013B000048C15468D40ADB22C43048430BD002909
:1013C00004D0828804231A43828004E08288454B3B
:1013D0006C331A4082807047828B484B1A4082835C
:1013E000828B0B061B0C1A4382837047F8B50C46A0
:1013F0000021002500260096068C414F3E400684C1
:10140000818B058C2607360C00963E4E3140160621
:10141000360C31431E07360C31433B4E3540012715
:101420003F03009E3E43354381830584F8BD828B94
:101430002C4B64331A408283828B0A438283704729
:10144000F8B50C460021002500260096068C254F95
:10145000903F3E400684818B058C2606360C009614
:10146000204E833E31401E05360C16433143274E35
:101470003540FF270137009E3E4335438183058475
:10148000F8BD028B1D4B1A400283028B0B061B0C0E
:101490001A4302837047F8B50C4600210025002648
:1014A0000096068C0F4F60373E400684018B058CFA
:1014B0002605360C0096134E31401E07360C31437C
:1014C0001606360C3143074E303E35401027009E3D
:1014D0003E43354301830584F8BD0000002C0140E4
:1014E000FFBF00008FFF0000FF8F0000FFF700002C
:1014F000FFFB0000FFFD0000FFDF0000FFF3000026
:10150000FFEF0000FF0C0000FF5F0000FFF5000090
:10151000028BD84B1A400283028B0A430283704726
:10152000F0B50C4600210025068CD24F0B373E400B
:101530000684018B058CCF4EE73E31401E05360CEC
:1015400016433143CB4EB61C354001262643354366
:1015500001830584F0BD70B505460C46208800283F
:101560000AD12389A28861882846FFF7D9FFE1883C
:101570002846FFF7CDFF25E0208804280AD12389DB
:10158000A28861882846FFF786FFE1882846FFF792
:1015900078FF17E0208808280AD12389A28861886B
:1015A0002846FFF74DFFE1882846FFF740FF09E096
:1015B0002389A28861882846FFF718FFE18828461A
:1015C000FFF70AFF70BD0021018041800121818069
:1015D0000021C18001817047F8B505460C46002600
:1015E00001276088002801D1022600E00026A0889B
:1015F000012801D1022700E001272088002814D10A
:101600002389A28861882846FFF78AFFE188284657
:10161000FFF77EFF23893A4631462846FFF73BFF16
:10162000E1882846FFF72DFF13E02389A28861880F
:101630002846FFF730FFE1882846FFF722FF23897D
:101640003A4631462846FFF76BFFE1882846FFF708
:101650005FFFF8BD0146486B70470146886B7047D5
:101660000146C86B70470146086C7047002A03D0DA
:1016700083890B43838102E083898B438381704795
:101680008182704702460020138A0B40002B01D054
:10169000012000E000207047CA430282704730B545
:1016A0000246002000230024158A0D402B46958910
:1016B0000D402C46002B03D0002C01D0012000E06F
:1016C000002030BDCA430282704710B50B46134359
:1016D0004824235210BD002A03D083890B43838101
:1016E00002E083898B4383817047002904D082887C
:1016F00008231A43828004E082885E4B1B1D1A4037
:101700008280704701895B4A521D114001817047F8
:101710000A4600210189574B643B19400B4613438D
:1017200019460181704730B504460D4629462046CA
:10173000FFF7EEFF208907210843208130BDF8B56F
:1017400004460D4616461F46602D06D13B46012233
:1017500031462046FFF79FFE05E03B460122314619
:101760002046FFF7DDFE29462046FFF7D1FF2089FE
:10177000072108432081F8BD30B50C4600210189BE
:10178000C9B21D062D0C154325432943018130BDE7
:10179000FFB505460E46174600243A463146284610
:1017A000039BFFF7E9FF2C893248401D04400720C6
:1017B0000443304864380440702004432C81FFBD4A
:1017C000F0B504460D4616461F463B4632462946AE
:1017D0002046FFF7D1FF208901218903084320819A
:1017E000F0BD8288234B643B1A40828082880A4382
:1017F0008280704702891F4B5B1D1A40028102895B
:101800000A430281704702891A4B743B1A400281D5
:1018100002890A4302817047F0B50C460021002579
:1018200000260189058B068C124F7F1D39400F461B
:1018300027433946104F3D40FF2702373D430D4FA8
:101840009E3F3E401F053F0C17433E4301810583E9
:101850000684F0BD002904D0828880231A43828048
:1018600004E08288034B743B1A4082807047502208
:1018700011527047F3FF0000FCFC000010B52A482D
:10188000006904218843284908610846006902214B
:1018900088432549086125492548006800F01EF95C
:1018A00024490870084600787D21C9004843224930
:1018B000088010BD204909884143491E1A4A5161D8
:1018C000012191611146096901221143164A1161F2
:1018D00000BF154909690122120411400029F8D0FE
:1018E00011490969490849000F4A116170471149B6
:1018F00009784143491E0C4A516101219161114609
:10190000096901221143084A116100BF06490969AA
:101910000122120411400029F8D00349096949083D
:101920004900014A1161704700E000E000127A00AE
:10193000000000202600002024000020FFB583B016
:101940000C4615461E460C9F019468460672457269
:10195000877269460D98C87201A90398FEF794FD35
:1019600007B0F0BDFFB583B00C4615461E460C9F70
:101970000194684605800681478069460398FFF711
:10198000F5F907B0F0BDF8B504460D4616466846B1
:10199000047045708670FEF72DFEF8BD08B5012174
:1019A0000220FFF71AF900200346144A7D2109019D
:1019B00000901348FFF7D6FF012200211020FFF707
:1019C000E2FF01210E48FFF767FE012211460C4895
:1019D000FFF74CFE01210A48FFF74DFA08BD10B58C
:1019E00001210748FFF75BFE002806D001210448CB
:1019F000FFF768FE01200349087010BD4F46000044
:101A0000000400402700002070B504460D462C4914
:101A10000988491E694308462A4900F05FF886B2E2
:101A2000666370BD00B587B001210802FFF7D5F8E5
:101A300001218804FFF7B5F80120002102230322C9
:101A40000091019019462048FFF778FF04220121F8
:101A50001D48FEF7A2FD1D48FFF722F91C491D484D
:101A6000006800F03BF8401E15490880002003463E
:101A7000194AC72100901548FFF774FF6021684696
:101A80000181012141810421818102218182002182
:101A9000C182FF21013101830021418302A90B484A
:101AA000FFF720FA07490948FFF7AEFF0121074871
:101AB000FFF707FA01210548FFF7DDF907B000BD80
:101AC00028000020E40C0000000400480020004032
:101AD0001027000000000020BF12000000220309B0
:101AE0008B422CD3030A8B4211D300239C464EE039
:101AF00003460B433CD4002243088B4231D30309F5
:101B00008B421CD3030A8B4201D394463FE0C309A6
:101B10008B4201D3CB01C01A524183098B4201D3BE
:101B20008B01C01A524143098B4201D34B01C01AA9
:101B3000524103098B4201D30B01C01A5241C30821
:101B40008B4201D3CB00C01A524183088B4201D390
:101B50008B00C01A524143088B4201D34B00C01A7C
:101B60005241411A00D201465241104670475DE091
:101B7000CA0F00D04942031000D340425340002214
:101B80009C4603098B422DD3030A8B4212D3FC22BD
:101B9000890112BA030A8B420CD3890192118B423C
:101BA00008D3890192118B4204D389013AD0921152
:101BB00000E08909C3098B4201D3CB01C01A52410D
:101BC00083098B4201D38B01C01A524143098B42D6
:101BD00001D34B01C01A524103098B4201D30B01BF
:101BE000C01A5241C3088B4201D3CB00C01A5241E4
:101BF00083088B4201D38B00C01A5241D9D24308CB
:101C00008B4201D34B00C01A5241411A00D2014607
:101C1000634652415B10104601D34042002B00D571
:101C20004942704763465B1000D3404201B5002033
:101C3000C046C04602BD704770477047754600F009
:101C400023F8AE46050069465346C008C0008546E5
:101C500018B020B5FEF7C4FB60BC00274908B646A3
:101C60000026C0C5C0C5C0C5C0C5C0C5C0C5C0C5AB
:101C7000C0C5403D49008D4670470446C046C04639
:101C80002046FEF76AFA0000004870472C0000204A
:101C900001491820ABBEFEE7260002007047000095
:101CA000C01C0008000000202C00000004010008F7
:101CB000EC1C00082C000020640600002001000835
:101CC000006CDC02000000000000000001020304C0
:101CD00006070809000000000102030401020304D2
:0C1CE000060708090000000000000000DA
:04000005080000C12E
:00000001FF
